:10000000F8FF0020110400001B0B00001B0B000078
:100010001B0B00001B0B00001B0B00001B0B000048
:100020001B0B00001B0B00001B0B00001B0B000038
:100030001B0B00001B0B00001B0B00001B0B000028
:100040001B0B0000352F00001B0B0000812F000050
:100050001B0B00001B0B00001B0B00001B0B000008
:100060001B0B00001B0B00001B0B00001B0B0000F8
:100070001B0B00001B0B00001B0B00001B0B0000E8
:100080001B0B00001B0B00001B0B00001B0B0000D8
:100090001B0B00001B0B00001B0B00001B0B0000C8
:1000A0001B0B00001B0B00001B0B00001B0B0000B8
:1000B0001B0B00001B0B00001B0B00001B0B0000A8
:1000C0001B0B00001B0B00001B0B00001B0B000098
:1000D0001B0B00001B0B00001B0B00001B0B000088
:1000E0001B0B00001B0B00001B0B00001B0B000078
:1000F0001B0B00001B0B00001B0B00001B0B000068
:100100001B0B00001B0B00001B0B00001B0B000057
:100110001B0B00001B0B00001B0B00001B0B000047
:100120001B0B00001B0B00001B0B00001B0B000037
:100130001B0B00001B0B00001B0B00001B0B000027
:100140001B0B00001B0B00001B0B00001B0B000017
:1001500049300000AB310000133200001B0B0000DF
:100160001B0B00001B0B00001B0B00001B0B0000F7
:100170001B0B00001B0B00001B0B00001B0B0000E7
:100180001B0B00001B0B00001B0B00001B0B0000D7
:100190001B0B00001B0B00001B0B00009B2F000023
:1001A0000D3000002B3000001B0B0000D92F000089
:1001B0001B0B00001B0B00001B0B00001B0B0000A7
:1001C0001B0B00001B0B00001B0B00001B0B000097
:1001D0001B0B00001B0B00001B0B00001B0B000087
:1001E0001B0B00001B0B00001B0B00001B0B000077
:10040000FFFFFFFFFFFFFFFFFFFFFFFFFEFFFFFFFD
:1004100062B64FF000004FF000014FF000024FF0C5
:1004200000034FF000044FF000054FF000064FF0BE
:1004300000074FF000084FF000094FF0000A4FF09E
:10044000000B4FF0000C01F0F1F9FEE710B5DFF8FA
:10045000CC0400687FF0BD01DFF8C4241268891A5B
:1004600088420CD0DFF8BC040078012807D0DFF800
:10047000B8040088DFF8B4140988884210D2DFF885
:10048000B004006800F0AEFADFF8A8140860DFF8E6
:10049000A004006800F0A6FADFF89C1408600BE0E6
:1004A000DFF89004DFF8941409680160DFF888042D
:1004B000DFF8881409680160DFF88404006800F040
:1004C00091FA0100DFF86C04006800F0B3FADFF87D
:1004D00074140860DFF87004006800F083FA01000B
:1004E000DFF85404006800F0A5FADFF86014086033
:1004F000DFF85C04DFF84C1409680160DFF854048D
:10050000DFF8481409680160DFF84C04006800F067
:1005100069FADFF83C14096800F000FB00F040FBCA
:10052000DFF834140860DFF83004006841F28931E4
:10053000884204DBDFF8200441F288310160DFF8F3
:1005400018040068DFF81414884204DADFF808049D
:10055000DFF808140160DFF80804006800F042FAD0
:10056000DFF8F013096800F0D9FA00F019FBDFF8A2
:10057000F0130860DFF8E803006841F2893188422F
:1005800004DBDFF8DC0341F288310160DFF8D003DF
:100590000068DFF8C813884204DADFF8C403DFF824
:1005A000BC130160DFF89C030068DFF8B81309682A
:1005B00000F040FADFF8B0130860DFF8900300683D
:1005C000DFF8A813096800F035FADFF8A413086013
:1005D000DFF8A0030168DFF87803006800F002FB91
:1005E0000400DFF87403006800F0FCF9DFF88813FA
:1005F000096800F0F7FA210000F090FA0400DFF833
:100600007C030168DFF86003006800F0EBFA21006A
:1006100000F084FADFF86813096800F07FFADFF869
:1006200060130860DFF84C030168DFF828030068F6
:1006300000F0D8FA0400DFF82803006800F0D2F9CF
:10064000DFF83413096800F0CDFA210000F066FAF3
:100650000400DFF828030168DFF81403006800F0E5
:10066000C1FA210000F05AFADFF81813096800F007
:1006700055FADFF810130860DFF8E802B14909689D
:100680000160BA48B14909680160DFF8F402006806
:10069000DFF8F41200F012FB02D8B948BB49016040
:1006A000B7480068002100F01BFB02D2B4480021CB
:1006B0000160B4480068B44900F000FB02D8B148BA
:1006C000B2490160AF480068002100F009FB02D286
:1006D000AC4800210160AE480088032803D2AD4831
:1006E0000088032807D3AC480088032806D2AB480B
:1006F0000088032802D2AA4801210170A848007886
:10070000002818D0A6480078401CA5490870A448C5
:100710000078102802D1A2480021017040F6AC52A6
:100720000121002000F040FC40F6AC5200210020E6
:1007300000F03AFC19E0924801689A4800F0EEF99E
:1007400000F02EFA80B202000121002000F02CFC03
:100750008C480168934800F0E1F900F021FA80B27A
:1007600002000021002000F01FFC10BD10B56B48F6
:10077000006800F037F98C4908608B4800688B49A5
:10078000096800F057F98A49086087480068002125
:1007900000F094FA04D2874887490968016002E0B2
:1007A00084488649016086480078022803D084483E
:1007B000007803280DD17C480068002100F07EFA03
:1007C00003D27C487D49016003E07A487A49096890
:1007D0000160784801687448006800F003FA04007A
:1007E000784801687248006800F0FCF9210000F0C8
:1007F00095F90100744800F01DF9744908606B48D0
:100800006949096801606E480078022803D06C4885
:10081000007803280BD1414800687FF0BD01404AB1
:100820001268891A884202D16848694901603D48C6
:10083000007801280DD1654866490160604800785C
:10084000022803D05E480078032802D15F4860493F
:1008500001605348007800280DD05C485C49016075
:1008600057480078022803D055480078032802D161
:100870005648584901605248007802282FD0504805
:10088000007803282BD0254800687FF0BD01244A5A
:100890001268891A884206D14F480078012802D18F
:1008A0004E48012101604D480068002817D01B48C0
:1008B00000687FF0BD011A4A1268891A884202D185
:1008C000424843490160154800687FF0BD01144A61
:1008D0001268891A884202D04048002101603B48D2
:1008E00000683F4900F0EAF903D838483949016007
:1008F00008E036480068364900F0F2F902D2334881
:10090000334901603148006800F04AF980B20200C2
:100910000021012000F048FB10BD00009407FF1FDC
:1009200070F5FF1FA7F5FF1F1804FF1F94F5FF1FA9
:1009300074F5FF1FC804FF1FCC04FF1F78F5FF1FCD
:100940009807FF1FD804FF1F9C07FF1FDC04FF1F31
:10095000E804FF1FEC04FF1FD004FF1F78ECFFFF2B
:10096000D404FF1FE004FF1FF004FF1FE404FF1F77
:10097000F404FF1F1004FF1F80F5FF1F1404FF1F66
:10098000F804FF1FFC04FF1F01A08C4500A08C454C
:1009900098F5FF1F9CF5FF1F96F5FF1F9AF5FF1FA7
:1009A000A0F5FF1F00409C450405FF1F0805FF1F21
:1009B0000C05FF1F0005FF1F7CF5FF1FCDCC4C3F32
:1009C000B3F5FF1F1C04FF1F00A0B444C404FF1FA5
:1009D00000A0A04400A0C844ADF5FF1F1005FF1FF4
:1009E00001A0C844002840F10780F446404200F0CE
:1009F00003F850F0004060470AD0B0FA80F1884018
:100A0000D1F19D01C905020672F1004241EB1020AF
:100A1000704750F8041B61B150F8042BD30744BF52
:100A2000A9F101039A18002342F8043B091FFAD1E7
:100A3000EFE7704790EA010F44BF81F0004100F0FA
:100A400075B800BF431A4FF000423EBF5340C01A72
:100A5000C91800BFD3095FEAD05C13EB400F34BF65
:100A6000B3EB410F40E07CEBD1530CD342EA0121C0
:100A700022D8D1EB402009D3400A28BF5FEA5001B9
:100A800040EBCC507047401A15D04002B0FA80F2CB
:100A9000521C9040400A4FEA3C23B3EB026384BFF0
:100AA00000EB730007E040F400001A16DB07C2F108
:100AB0000102D04018437047182BFCDC31FA03F2D6
:100AC00002FA03F3591A38BF42F00102D2EB402078
:100AD0003CBF4000ACF1010C5FEACC5CC20572F196
:100AE00000414CEB5020704713EB400F0FD24B00EE
:100AF00009D0ACEBD153022B03DB4902172BDDDD10
:100B000070479143401A4300D5D10020704713EB42
:100B1000410FD0D36FF000007047704790EA010F8B
:100B200044BF81F00041FFF78DBF00BF421A3CBFB8
:100B3000801A89184FF0004CC0F3C752FF2A24D006
:100B4000C1F3C75313B3D21AD2F1190327DD4CEA0C
:100B500001214CFA03F321EA0303D140C20D4CEA10
:100B60000020401834BF20EA0C004CEA5000D205A7
:100B700053EA006373EB0C0C52EB1020420012F1AD
:100B8000807F38BF7047C00DC0057047490212BF53
:100B90009A4200EB5120F8E7D2F11703D9D57047FC
:100BA0004100090E7F3915D4D1F11F0114D4400042
:100BB00007D2C00140F00040C84048BF6FF000407D
:100BC0007047C00140F00040C8404CBF4FF00040AB
:100BD000404270470020704700424FF0004058BF2D
:100BE000C0437047FF2212EAD05C1DBF12EAD15306
:100BF000944593422BE09C44D30780EA01021A40BB
:100C000043EA002043EA0121A1FB0030410038BF44
:100C100040007CF17F010BDBFE294ADA5B0842EAE7
:100C2000C15153EA006373F1004C51EB102070473F
:100C3000D1F1080CDCF120012FDB5B0810FA01F187
:100C40000B4373F1004120FA0CF05041704794457A
:100C50001CBF02EAD153934280EA010202F0004233
:100C60001DD0400019D0490017D05BB9634514D09E
:100C70000902B1FA81F39940BCEB030CC00140F0CA
:100C80000040C1E70002B0FA80FC10FA0CF0B3EBB0
:100C90000C0CC90141F00041B6E71000704740005C
:100CA0000AD0490008D010F1807F94BF11F1807FF5
:100CB00002E042F0FF407047D04370474FF0807C25
:100CC0001CEB400F94BF1CEB410F05E040EA010C08
:100CD0005FEA4C0C01D28142704718BF88427047CE
:100CE0004FF0807C1CEB400F94BF1CEB410F05E0E4
:100CF00040EA010C5FEA4C0C01D28842704718BFF1
:100D0000814270472DE9F84F04000D0016001F00C6
:100D1000DFF80C0300684FF47A7148435FEA50082B
:100D2000E4B2002C0DD0E4B2012C02D0E4B2022CCB
:100D300002D1EDB2022D04D33821DFF8E80200F031
:100D40008BF95FEA5800B04204D23921DFF8D402AF
:100D500000F082F95FEA1840B0FBF6F0814600200F
:100D600082461FFA89F959FA0AF0012802DB1AF1C2
:100D7000010AF6E74FF47A70864201D21AF1010AAD
:100D800038FA0AF0B0FBF6F081461FFA89F919F13A
:100D9000010000FB07F042F21071B0FBF1F0834656
:100DA000E4B2002C03D0022C7AD04BD3A6E0DFF8BB
:100DB0007802006850F08070DFF86C120860EDB2C5
:100DC000002D05D0022D1FD010D3032D2AD037E0DF
:100DD000DFF85802006850F40060DFF85012086035
:100DE000DFF84C024FF4806101602AE0DFF83C023A
:100DF000006850F40060DFF834120860DFF8340255
:100E00004FF4806101601CE0DFF82002006850F4BC
:100E10000060DFF818120860DFF81C024FF48061F0
:100E200001600EE0DFF80402006850F40060DFF8B3
:100E3000FC110860DFF804024FF48061016000E0FB
:100E4000B0E05BE0DFF8E001006850F00070DFF830
:100E5000D8110860EDB2002D02D0012D0FD01DE099
:100E6000DFF8C80100684FF400710843DFF8BC11D7
:100E70000860DFF8CC014FF4407101600FE0DFF84B
:100E8000AC0100684FF400710843DFF8A01108605E
:100E9000DFF8B0014FF44071016000E082E02DE026
:100EA000DFF8A401006850F08070DFF89C11086042
:100EB000EDB2002D02D0012D0FD01DE0DFF86C0146
:100EC00000684FF400710843DFF860110860DFF834
:100ED0007C014FF4407101600FE0DFF850010068C1
:100EE0004FF400710843DFF844110860DFF8600137
:100EF0004FF44071016000E054E0FFE7EDB2E4B26E
:100F0000DFF8500150F8240010EBC500EDB2E4B258
:100F1000DFF8401151F8241011EBC501C96831F018
:100F20000401C160EDB2E4B2DFF8280150F82400FA
:100F300010EBC5002821C160E4B2DFF8180150F8B9
:100F400024005FFA8AFA1AF0070151F028010160C3
:100F5000E4B2DFF8000150F824000021C164E4B2DB
:100F6000DFF8F00050F824001FFA89F9C0F8089063
:100F7000E4B2DFF8E00050F824000021C164EDB2D3
:100F8000E4B2DFF8D00050F8240010EBC5001FFADF
:100F90008BFBC0F810B0E4B2DFF8B80050F82400C2
:100FA00000214160BDE8F18F2DE9F04104000D0002
:100FB0001600E4B2002C0ED0E4B2012C02D0E4B250
:100FC000022C02D1EDB2022D05D34FF4B071DFF83F
:100FD000540000F041F842F21170864205D340F20D
:100FE0006111DFF8400000F037F8E4B2DFF8640088
:100FF00050F824008068804618F1010000FB06F0DC
:1010000042F21071B0FBF1F00700EDB2E4B2DFF88C
:10101000440050F8240010EBC5000761BDE8F081E2
:1010200090F5FF1F8C3400003C8004403880044061
:1010300004B0044008B004400CB0044010B00440B8
:1010400020900440249004403080044028900440C4
:101050002C9004402004FF1F38B504000D0000F060
:101060000BF82A002100034800F0F9FA00F02DF8EF
:10107000F7E700BFF433000080B5012301220C2103
:10108000032000F001FB012301220D21032000F0C9
:10109000FBFA012301220E21032000F0F5FA0123BF
:1010A00001220F21032000F0EFFA01BD1E4AD26891
:1010B0001268012383409A43C9B211F001038340AF
:1010C0001A43194BDB681A60704710B501230122DF
:1010D0000C21032000F0D8FA012301220D21032066
:1010E00000F0D2FA012301220E21032000F0CCFAF5
:1010F000012301220F21032000F0C6FA0C20040076
:10110000E4B2102C0ED200212000C0B2FFF7CEFFB7
:10111000642000F05BFB01212000C0B2FFF7C6FF96
:10112000641CEDE710BD00002C04FF1F70B5040027
:101130000D0016003068012802D0022805D00AE010
:101140002000C0B27168884705E0B0680470B068DC
:10115000401CB060FFE72868401C286070BD2DE986
:10116000F04704005FF0000A5046A1465FF0000A15
:1011700089F800A019F10109002A1FD0D1F800A0B8
:101180005546002D05D15FF0300A89F800A0401CBB
:1011900038E0002D36D095FBF3FA564603FB165A7D
:1011A0005746002F02D5FF43313700E03037350076
:1011B00089F8007019F10109401CEAE7D1F800A094
:1011C000D446BCF1000F05D15FF0300A89F800A0C9
:1011D000401C17E0BCF1000F14D0BCFBF3FAD6465C
:1011E00003FB1ECAD046B8F10A0F02D218F130082C
:1011F00001E018F13708F44689F8008019F1010977
:10120000401CE7E7BDE8F0872DE9F04104000D0040
:1012100016001F00A046A84507DA3A00310030202A
:10122000FFF784FF18F10108F5E7BDE8F0812DE92B
:10123000F04104000D0016001F00A046A84507DA83
:101240003A0031002020FFF771FF18F10108F5E79F
:10125000BDE8F0812DE9F24F92B0040015000020A6
:101260000090129883469BF800000590002800F03B
:10127000F2810598252813D005980A2805D0220068
:1012800000A90598FFF752FF09E0220000A90D20F0
:10129000FFF74CFF220000A90A20FFF747FFD7E124
:1012A00000208146002003900398002822D11BF1E2
:1012B000010B9BF8000020280ED0232812D02B28E9
:1012C00007D02D2802D0302809D00EE059F00109AE
:1012D000EAE759F00209E7E759F00409E4E759F0B1
:1012E0000809E1E759F01009DEE7BBF1010B012025
:1012F0000390D9E70020824600200390039800283D
:1013000013D11BF1010B9BF8000005903038092820
:1013100006D80A20059900FB0A10B0F1300AEDE763
:10132000BBF1010B01200390E8E71BF1010B9BF8D7
:1013300000002E2811D100200390039800280ED120
:101340001BF1010B9BF800003038092800D8F4E7A6
:10135000BBF1010B01200390EFE7BBF1010B1BF187
:10136000010B9BF800004C2806D0682802D06C289E
:1013700001D002E003E002E001E0BBF1010B1BF150
:10138000010B9BF800000590582875D0622800F0EA
:10139000D580632800F01D81642813D0692811D0FE
:1013A0006E2800F049816F2800F0BD80702800F0A1
:1013B000D080732800F01681752800F0D580782839
:1013C0005AD040E1286806902D1D0A23012206A963
:1013D00009A8FFF7C4FE070009A8381806000698F8
:1013E000002803D52D2002907F1C0FE0484680077F
:1013F00003D52B2002907F1C08E04846400703D508
:10140000202002907F1C01E0002002900020049028
:101410004846000711D50298002804D0220000A9F0
:101420000298FFF783FE01200490230000AA514692
:101430003800FFF7E9FE574612E04846C0070FD4D0
:10144000230000AA51463800FFF7F1FE0298002859
:1014500004D0220000A90298FFF768FE0120049042
:101460000498002807D10298002804D0220000A97F
:101470000298FFF75BFE98E0286801902D1D10236D
:10148000002201A909A8FFF76AFE070009A8381879
:101490000600002004904846000716D54846C006BE
:1014A0000BD5220000A93020FFF740FE220000A942
:1014B0007820FFF73BFE01200490230000AA51464C
:1014C0003800FFF7A1FE57461BE04846C00718D476
:1014D0004846C00600D5BF1C230000AA514638006C
:1014E000FFF7A5FE4846C0060BD5220000A9302014
:1014F000FFF71CFE220000A97820FFF717FE01204D
:1015000004904846C0060DD5049800280AD1220050
:1015100000A93020FFF70AFE220000A97820FFF77B
:1015200005FEBF1C41E0286801902D1D0823002204
:1015300001A909A8FFF713FE07001FE02868019022
:101540002D1D0223002201A909A8FFF708FE0700AC
:1015500014E0286801902D1D1023002201A909A87C
:10156000FFF7FDFD070009E0286801902D1D0A2303
:10157000002201A909A8FFF7F2FD070009A8381801
:1015800006004846000707D5230000AA5146380048
:10159000FFF73AFE574608E04846C00705D4230047
:1015A00000AA51463800FFF742FE3078002806D0E6
:1015B000220000A93078FFF7B9FD761EF5E748460E
:1015C000C00705D5230000AA51463800FFF72FFEBB
:1015D0003EE0287807902D1D220000A90798FFF70C
:1015E000A5FD35E0286880462D1DB8F1000F22D0FA
:1015F000404600F00BF907004846C00705D4230019
:1016000000AA51463800FFF712FE98F800000028A3
:1016100008D0220000A998F80000FFF787FD18F114
:101620000108F2E74846C00705D5230000AA514645
:101630003800FFF7FCFD0BE0286808902D1D089886
:101640000099016004E0220000A90598FFF76EFDF3
:101650001BF1010B07E6009813B0BDE8F08F0EB444
:101660007EB50400012000900648019007A80500FF
:101670002A00210000A8FFF7EDFD060030007EBC27
:101680005DF810FB693A0000F8B504000D00160083
:101690001F00EDB2202D02D2FFB2022F03D324216E
:1016A0004748FFF7D9FCEDB2E4B2464850F82400B1
:1016B000F6B24FF48071314340F82510F00705D59C
:1016C000F6B2032E02D0F6B2132E0DD1E4B23E488C
:1016D00050F8240040690121A9408843E4B23A4906
:1016E00051F8241048612AE0E4B2374850F8240049
:1016F00040690121A9400843E4B2334951F824105C
:101700004861FFB2012F0DD1E4B22F4850F82400F8
:1017100000680121A9400843E4B22B4951F8241084
:1017200008600CE0E4B2284850F824000068012169
:10173000A9408843E4B2244951F824100860F1BD5F
:1017400070B504000D001600EDB2202D02D2F6B2E5
:10175000022E03D34B211A48FFF77EFCF6B2012E6E
:101760000DD1E4B2184850F8240000680121A940C6
:101770000843E4B2144951F8241008600CE0E4B2C4
:10178000114850F8240000680121A9408843E4B2C0
:101790000D4951F82410086070BD38B504000D00E3
:1017A000EDB2202D03D371210548FFF755FCE4B2BB
:1017B000054850F824000069E84010F0010032BDEF
:1017C000403400004004FF1F2C04FF1F00231900B9
:1017D000814209D20C4B1B681A00002A02D000BFBC
:1017E000521EFAE7491CF3E770470000064A1268E8
:1017F0004FF47A73B2FBF3F21100002902D000BF5C
:10180000491EFAE77047000090F5FF1F01000A002B
:101810000023002A01D1002007E01000421C0078BC
:10182000002801D05B1CF8E71800704780B500F075
:101830008DFA00F0A7FA00F005FBDFF8E803FFF7E8
:101840000EFFDFF8E4030068DFF8E0134979491C74
:10185000B0FBF1F00090DFF8D0030068DFF8CC13A4
:101860000979491CB0FBF1F3DFF8BC030068DFF82D
:10187000BC13C978491CB0FBF1F2DFF8AC03016876
:10188000DFF8AC03FFF7EBFEDFF8A80300784007B2
:1018900003D5DFF8A403FFF7E2FEDFF89803007832
:1018A000800703D5DFF89403FFF7D9FEDFF8840340
:1018B0000078C00703D5DFF88803FFF7D0FEDFF814
:1018C00084030078000603D5DFF87C03FFF7C7FE2A
:1018D000DFF870030078400603D5DFF87003FFF7E8
:1018E000BEFEDFF860030078800603D5DFF86003F2
:1018F000FFF7B5FEDFF84C030078400703D5DFF8AB
:101900005403FFF7ACFEDFF83C030078800703D5F3
:10191000DFF84403FFF7A3FEDFF828030078C007D1
:1019200003D5DFF83803FFF79AFEDFF83403FFF73B
:1019300096FEDFF83003DFF83013884204D0DFF87A
:101940002C03FFF78CFE03E0DFF82403FFF787FE8C
:1019500000F003F800F040FBFEE780B5DFF8140369
:101960000068000910F0070000280BD0022813D0EF
:101970000DD3042819D014D306281ED019D3072854
:101980001FD022E0DFF8F002FFF769FE20E0DFF869
:10199000EC02FFF764FE1BE0DFF8E402FFF75FFEF6
:1019A00016E0B848FFF75BFE12E0B748FFF757FEB6
:1019B0000EE0B648FFF753FE0AE0B548FFF74FFECA
:1019C00006E0B448FFF74BFE02E0B348FFF747FEDE
:1019D000A848006810F00F00022812D0042814D084
:1019E000052816D0062818D007281AD008281CD099
:1019F00009281ED00A2820D00C2822D00E2824D056
:101A000027E0A648FFF72BFE26E0A548FFF727FEB4
:101A100022E0A448FFF723FE1EE0A348FFF71FFEC5
:101A20001AE0A248FFF71BFE16E0A148FFF717FED9
:101A300012E0A048FFF713FE0EE09F48FFF70FFEED
:101A40000AE09E48FFF70BFE06E09D48FFF707FE01
:101A500002E09C48FFF703FE86480068000B10F088
:101A60000F00002803D0022809D004D30BE09648C9
:101A7000FFF7F5FD0AE09548FFF7F1FD06E0944811
:101A8000FFF7EDFD02E09348FFF7E9FD00F06AF88B
:101A900091480068000E10F00F00072806D00928B2
:101AA00008D00B280AD00F280CD00FE08B48FFF786
:101AB000D6FD0EE08A48FFF7D2FD0AE08948FFF71D
:101AC000CEFD06E08748FFF7CAFD02E08648FFF733
:101AD000C6FD86480068000203D58548FFF7BFFDB4
:101AE0001EE07D480068000F002806D0072808D0B7
:101AF00009280AD00F280CD00FE07E48FFF7AFFD71
:101B00000EE07D48FFF7ABFD0AE07C48FFF7A7FD3C
:101B100006E07A48FFF7A3FD02E07948FFF79FFD52
:101B200078480068000B10F00F00052806D0072841
:101B300008D008280AD009280CD00FE07248FFF717
:101B40008EFD0EE07148FFF78AFD0AE07048FFF74E
:101B500086FD06E06F48FFF782FD02E06E48FFF762
:101B60007EFD01BDF8B56D48032101706C48002170
:101B700001706C48002101706B48002101706B48B6
:101B8000012101706A4880210170694800780006CF
:101B9000FBD568480078040067480078050067486E
:101BA00000780600664800780700FFB20097F6B29A
:101BB0003300EDB22A00E4B221006248FFF74FFD86
:101BC00056480321017056480021017055480021F4
:101BD0000170554804210170544801210170544896
:101BE00080210170524800780006FBD551480078EA
:101BF000040051480078050050480078060050481D
:101C000000780700FFB20097F6B23300EDB22A0069
:101C1000E4B221004C48FFF722FD4548FF21017046
:101C2000F1BD0000043700008CF5FF1F5404FF1FB6
:101C3000D434000000E0074098390000A4370000C9
:101C4000783A000001E00740A8390000F8380000A9
:101C5000F837000010380000C0370000843A000058
:101C6000243700000000FF1F00000000903A000031
:101C70009C3A000024800440B43A0000BC3A0000C2
:101C8000C43A0000CC3A0000D43A0000DC3A00002C
:101C9000E43A0000EC3A0000A4360000B839000035
:101CA000C8390000D8390000E8390000F8390000D0
:101CB000083A0000183A0000283A0000383A0000BC
:101CC000483A00004C3600000C3900002039000072
:101CD000343900005C3500004C8004402838000096
:101CE000403800005838000044370000508004405D
:101CF000583A00007038000088380000A038000012
:101D00006437000000700440483900005C3900006E
:101D10007039000084390000DC3700000700024001
:101D20000600024005000240040002400F0002408D
:101D3000000002400B0002400A000240090002407D
:101D400008000240CC3600008437000080B500F067
:101D500009F80A4800884FF6FE71084007490880D4
:101D600001BD000072B606484CF2205101800448C3
:101D70004DF62811018062B6704700000020054032
:101D80000E2005402DE9F8432448254988420DD00E
:101D900000208046B8F5826F08D22048204951F8CB
:101DA000281040F8281018F10108F3E71B4800F04C
:101DB0007BF91C4807001C4806001C480400A01BB7
:101DC00080464046B0F10108002804D030783870D1
:101DD000761C7F1CF5E71648814616480500B5EBD2
:101DE000090080464046B0F10108002805D00020D7
:101DF00089F8000019F10109F4E70F480F49104A6A
:101E0000531A98464346B3F10108002B04D00B78CF
:101E10000370491C401CF5E7BDE8F1830000FF1F7B
:101E2000000000001004FF1F40330000A433000036
:101E3000C404FF1FB5F5FF1F7404FF1FA433000087
:101E4000F433000080B51148006850F478500F4911
:101E50000860B42000F0DAF90D4908600C48006809
:101E60004FF47A7148430B4908600A4800680A49F0
:101E70000968C1F30361491CB0FBF1F00749086030
:101E80004FF49641032000F043FB01BD388004402D
:101E90008CF5FF1F88F5FF1F4480044090F5FF1F5D
:101EA00080B509210020FFF778FC664908700B21F6
:101EB0000020FFF772FC644908700D210020FFF735
:101EC0006CFC624908700F210020FFF766FC604936
:101ED00008705C48007840005B49097840185D490B
:101EE00008705C48007800280FD15B485B490160AE
:101EF0005B486E2101605B485B4901605B485C495F
:101F000001605C486421018036E052480078012875
:101F10000FD151485849016051486E210160514824
:101F20005149016051485249016052486421018081
:101F300022E04848007802280FD147484F49016005
:101F400047487821016047484D49016047484D495D
:101F500001604848502101800EE03F484A49016035
:101F60003F48642101603F483F4901603F48404984
:101F700001604048642101803448007840003449C1
:101F8000097840184149087040480078002808D175
:101F90003F484621016037480088401F3549088086
:101FA00019E03A480078012808D139484B210160EE
:101FB00030480088401F2F4908800CE033480078E3
:101FC000022804D132487FF04001016003E030482C
:101FD0007FF04501016001BD80B500F09FFBFFF778
:101FE0005FFF2C4800780128FBD12A4800210170AE
:101FF00000F0BEFC284908602748006810F1BE0FB9
:10200000EFD026480121017025480068C0F38010F8
:10201000C00705D522480068C0F3C010C00703D42C
:1020200020480121017002E01E480021017019487A
:1020300000780128E8D117480021017000F027FD41
:10204000E2E70000AEF5FF1FAFF5FF1FB0F5FF1F81
:10205000B1F5FF1FB2F5FF1F78F5FF1F0000A04389
:1020600074F5FF1F7CF5FF1FCDCCCC3F80F5FF1F23
:102070000AD7A33C1804FF1F0000AF4300008743AA
:102080009A99993FCDCC4C3D00009643B3F5FF1F84
:1020900070F5FF1FA1F5FF1F84F5FF1FB4F5FF1FAB
:1020A000D0F00F40ADF5FF1F48490860704738B5C4
:1020B00004005C2C02DB4648FFF7D1FA202094FB99
:1020C000F0F00500002D03D0022D27D013D337E008
:1020D0000120202194FBF1F202FB114290403D4986
:1020E00008600120202194FBF1F202FB1142904094
:1020F0003949086024E00120202194FBF1F202FB21
:1021000011429040354908600120202194FBF1F2F2
:1021100002FB114290403249086011E00120202169
:1021200094FBF1F202FB114290402E49086001201D
:10213000202194FBF1F202FB114290402A490860F1
:1021400031BD38B504005C2C02DB2848FFF787FA64
:10215000202094FBF0F00500002D03D0022D15D0B7
:102160000AD31CE00120202194FBF1F202FB114272
:1021700090401F49086012E00120202194FBF1F2F9
:1021800002FB114290401B49086008E00120202119
:1021900094FBF1F202FB114290401749086031BDF7
:1021A00070B504000D005C2C02DB1448FFF757FAF1
:1021B000102D02DB1248FFF752FA04F1604010F5CF
:1021C000644006002801307070BD000008ED00E09A
:1021D0001436000080E200E000E100E084E200E06C
:1021E00004E100E088E200E008E100E09C35000046
:1021F00080E100E084E100E088E100E0D835000003
:102200001C350000DFF800F07504FF1F38B504002E
:10221000E4B2002C00F00E81E4B2200030281ED081
:10222000322823D0602828D064282DD06E2832D0C0
:10223000782837D07D283CD0822841D08C2846D0C1
:1022400096284BD0A02850D0AA2855D0B4285AD0D0
:10225000C8285FD0E12864D0FA2869D06FE0A4488C
:1022600018210170A248002141706CE0A04818219B
:1022700001709F480121417065E09D48182101705F
:102280009B48182141705EE09948182101709848D8
:102290001A21417057E096481821017094481F2177
:1022A000417050E09248132101709148182141700B
:1022B00049E08F48132101708D481A21417042E096
:1022C0008B48132101708A481C2141703BE08848EB
:1022D0000E21017086481221417034E084480E219D
:1022E00001708348152141702DE081480E21017055
:1022F0007F481821417026E07D480E2101707C48FE
:102300001B2141701FE07A480E21017078481E2180
:10231000417018E076480C21017075481C2141700D
:1023200011E073480B21017071481E2141700AE0D1
:102330006F480A2101706E481F21417003E064203C
:10234000FFF764FFD2E06A4800218170E4B2652C97
:1023500003D267480021C1701FE0E4B2C92C03D248
:1023600063480121C17018E02000C0B240F22D1175
:1023700080B2884203D25E480221C1700DE0200085
:10238000C0B240F2911180B2884203D25848032172
:10239000C17002E056480F21C17055485449C978B0
:1023A0000171E4B21A2C03D251480021417141E07D
:1023B000E4B2332C03D24E48012141713AE0E4B239
:1023C0004C2C03D24A480221417133E0E4B2652C1F
:1023D00003D24748032141712CE0E4B27E2C03D2A2
:1023E00043480421417125E0E4B2972C03D24048D0
:1023F000052141711EE0E4B2B02C03D23C48062115
:10240000417117E0E4B2C92C03D239480721417168
:1024100010E0E4B2E22C03D235480821417109E012
:10242000E4B2FB2C03D232480921417102E030486A
:102430000F2141712E484078183080B23221484334
:102440002B490978491C89B290FBF1F00500294815
:10245000002101702848006850F08050264908602B
:102460002648007850F080002449087024489821BC
:10247000017024480078C006FBD422480078C0F3DD
:102480008100C0B20228F8D11948007810F01F006E
:102490001D4908701D4800210170154843791448F2
:1024A00002791348C17812488078FFF7ABFE1048D4
:1024B000407810F01F0050F0400014490870114897
:1024C00000788006FBD50F4800784006FBD50C4805
:1024D000007810F03F000A4908700A480078C0F3FD
:1024E0008100C0B20328F8D12800C0B232BD00BFBD
:1024F0005404FF1F014006403480044008C00740D8
:1025000000400640064006400440064005400640A4
:10251000F0B4C0B2002808D0022824D014D3042874
:102520003FD02FD305284BD059E06B4E4FF4407766
:1025300037606A4E4FF440773760694E366856F41C
:102540008066674F3E604AE0664E4FF440773760E2
:10255000654E4FF440773760614E366856F400663A
:102560005F4F3E603BE0614E4FF440773760604E16
:102570004FF4407737605A4E366856F48056584FBD
:102580003E602CE05B4E4FF4407737605A4E4FF47C
:1025900040773760524E366856F40056504F3E60D2
:1025A0001DE0564E4FF440773760554E4FF440775C
:1025B0003760544E366856F48066524F3E600EE0E7
:1025C000514E4FF440773760504E4FF440773760AC
:1025D0004C4E366856F400664A4F3E60FFE7C0B284
:1025E0004B4E56F82060F67816F0F306C0B2484F0E
:1025F00057F82070FE70C0B2454E56F82060002794
:10260000B770C0B2002801D1012600E00026C0B298
:10261000012801D1012700E000273E43F6B2002E39
:1026200006D03C4E36684FF47A777E43350005E09D
:10263000394E36684FF47A777E4335000E01B5FB8C
:10264000F6F63200C0B2324E56F82060367816F0F8
:10265000E006340092B2160A16F01F062643C0B2F6
:102660002B4F57F820703E70C0B2294E56F82060AC
:1026700072706E010F01B6FBF7F692B2B6EB42161E
:102680003300C0B2224E56F82060B67A16F0E0064B
:102690003400C0B21E4E56F8206013F01F072743C7
:1026A000B772C0B21A4E56F82060F67856F00C0693
:1026B000C0B2174F57F82070FE70F0BC7047C0B220
:1026C000134A52F8202012791206F8D5C0B2104AE7
:1026D00052F82020D171704718C004401CC004403B
:1026E000348004400CB0044010B004400CC00440DE
:1026F00008C0044040B0044044B0044064D00440EA
:1027000060D004402880044024D0044020D00440FD
:102710005C04FF1F88F5FF1F90F5FF1F80B50021A7
:102720005720FFF73DFD00215B20FFF739FD002119
:102730004020FFF735FD02214420FFF731FD012144
:102740004520FFF72DFD01214620FFF729FD72B638
:1027500083480168002000F0AFF942F210710120B7
:1027600000F0AAF942F21071022000F0A5F941F23E
:10277000883342F2107200210020FEF7C3FA41F2C2
:10278000883342F2107201210020FEF7BBFA40F2BA
:10279000A553642200210120FEF7B4FA01234FF66D
:1027A000FE723621042000F029FA01234FF6FE7252
:1027B0004521052000F022FA002301221C210420DB
:1027C000FEF762FF0023002200210120FEF75CFFDC
:1027D0000023002206210220FEF756FF00230122DB
:1027E00000210220FEF750FF0023002207210120D4
:1027F000FEF74AFF0023002209210120FEF744FFD3
:102800000023002200210420FEF73EFF00230022C7
:1028100001210420FEF738FF0023002202210420BA
:10282000FEF732FF0023002203210420FEF72CFFD5
:102830000023002204210420FEF726FF00230022AB
:1028400005210420FEF720FF00230022062104209A
:10285000FEF71AFF0023002207210420FEF714FFD1
:102860000023002206210320FEF70EFF0023002292
:1028700007210320FEF708FF5FF4E1310420FFF792
:1028800047FE002301221C210020FEF7FDFE00234D
:1028900000220C210420FEF7F7FE3248006850F4B5
:1028A00080303049086035234FF4BE722E492F48DE
:1028B00000F03AF989221A21002000F0E3FA892277
:1028C0000A21042000F0DEFA62B65B20FFF739FC33
:1028D0004520FFF736FC4620FFF733FC002301229A
:1028E0001A210420FEF7D0FE002301221B21042020
:1028F000FEF7CAFE4FF47A7000F0FAFA01221A21AC
:102900000420FEF71DFF01221B210420FEF718FF03
:102910004FF47A7000F0ECFA00221A210420FEF73E
:102920000FFF00221B210420FEF70AFF00230022D4
:1029300009210020FEF7A8FE002300220B21002021
:10294000FEF7A2FE002300220D210020FEF79CFED0
:10295000002300220F210020FEF796FE01BD00009B
:1029600090F5FF1F30D00440E807FF1F10F10F4023
:1029700070B40023002400204A4D00262E8000253C
:102980002900282922DA00252A004D00D5F1280542
:10299000AA4208DA4FF4BE75434E05FB01650026D6
:1029A0005655521CF1E740F27B152A004D0005F206
:1029B0002C15954208DA4FF4BE753B4E05FB0165B8
:1029C00000265655521EF1E7491CDAE7002529007A
:1029D000A02941DA00252A004FF4BE75AA4212DA76
:1029E000022592FBF5F606FB1526002E09D04FF4C2
:1029F000BE752D4E05FB0165555DFB2D01D3130002
:102A000001E0521CE8E7002B19D040F27B152A00A8
:102A1000002A14D4022592FBF5F606FB1526002E9B
:102A20000BD04FF4BE75204E05FB0165555DFB2DA7
:102A300003D314001B4D298001E0521EE8E7E5187E
:102A4000022695FBF6F5194E46F8215000252B007D
:102A500000252C00491CBBE700252A000025290081
:102A6000A0290FDA114D55F82150002D08D00F4D37
:102A700055F821502818521C0C4D002645F82160AD
:102A8000491CEDE790FBF2F0BE3870BC704780B592
:102A9000FFF76EFF06490968401A06490860FDF70E
:102AA00065FE01BD94F5FF1FE807FF1F1405FF1F1A
:102AB00070F5FF1F9407FF1F38B504000D0017487D
:102AC000006850F400001549086015480068800847
:102AD000800013490860E4B2200112494550E4B275
:102AE000104810EB0410C06850F00100E4B20D492A
:102AF00011EB0411C860E4B20A4810EB04108068BE
:102B000050F00300E4B2074911EB04118860E4B20D
:102B100014F14400FFF7CBFA31BD00003C800440C3
:102B20000070034000710340F8B504000D0016006A
:102B30001F00DFF8F402006850F00200DFF8E8122E
:102B40000860DFF8E802006850F00200DFF8DC12ED
:102B50000860DFF8F8020021017017F03F00DFF88D
:102B6000EC12087030004004400CDFF8E4120880DA
:102B700030004004400CDFF8DC120880DFF8D80297
:102B80000460DFF8D8020560DFF8D402012101609B
:102B9000DFF8D00200210180DFF8CC0200210160C3
:102BA000DFF8C80200210160DFF8C40201210180C2
:102BB000DFF8C00200210180DFF8BC02082101809B
:102BC000DFF8B402008850F00200DFF8AC12088091
:102BD0009E48007850F080009C4908709A48006830
:102BE00050F00200984908609748006850F00200D1
:102BF000954908600120FFF75AFAF1BD2DE9F84325
:102C000005000E00170098465FF000095FFA89F989
:102C1000B9F1000F01D101240EE05FFA89F9B9F191
:102C2000010F01D1022407E05FFA89F9B9F1020F1F
:102C300001D1042400E01024B7F5004F02D347F679
:102C4000FF700700EDB28D4840F8257076480068A7
:102C500050F00200744908607448006850F00200A7
:102C600072490860EDB268017149854A4250EDB27F
:102C7000680100F1804010F5104081490161EDB21A
:102C8000680100F1804010F5104000218180EDB214
:102C9000680100F1804010F51040002181825FFA48
:102CA00089F95FEA092010F4E0605FFA89F919F008
:102CB00007010843EDB2690101F1804111F51041AE
:102CC000C880EDB2680100F1804010F51040390075
:102CD0004904490CC182EDB2680100F1804010F551
:102CE00010403900C905C90DC1835248006830F051
:102CF000800050490860EDB2680100F1804010F595
:102D00001040E4B28460EDB2680100F1804010F53B
:102D100010407942C160EDB2680100F1804010F5C9
:102D2000104000218161EDB2680100F1804010F592
:102D300010400A218183F6B27009313050F08000D2
:102D4000EDB23D4968543D4800684FF40071F6B259
:102D500072099140084339490860F6B27011384948
:102D600051F82000F6B27111354A52F82110496924
:102D7000012216F01F039A4091434161F6B216F00A
:102D80001F00F6B271112F4A52F821105FFA88F82D
:102D900018F003025FFA88F85FEA9813DBB253EA8F
:102DA00002424FF480731A4341F82020F6B2002EFD
:102DB00001D0012000E00020F6B27111204A52F843
:102DC0002110F6B272111E4B53F8222052690123D2
:102DD00013FA00F032EA000048611B480068012144
:102DE000A940084318490860EDB22800FFF75FF9D1
:102DF000BDE8F1830100C9B2204850F82100C9B2F2
:102E00004A0102F1804212F51042D28A801A7047BC
:102E1000C0B2410101F1804111F51041C0B2174A21
:102E200052F82020CA827047408004403C80044011
:102E300000900040008000400010024038800440B4
:102E40002C04FF1F4004FF1F0C80004001100240B3
:102E5000369000403E90004020900040309000406E
:102E600028900040249000402C9000403890004072
:102E700034900040269000403C900040A807FF1F7F
:102E80000C00044070B504000D00160015480068E1
:102E90004FF40071A140084312490860EDB2E4B25A
:102EA000114850F82400F6B2310411F47021F6B242
:102EB000F209D2B2114351F4817140F82510E4B205
:102EC0000A4850F8240040690121A9408843E4B22F
:102ED000064951F824104861E4B214F15700FFF795
:102EE000E6F870BD388004404004FF1F2C04FF1F2B
:102EF0000C49096851F001010A4A11600B49086048
:102F00000B4905220A60084901220A60064909683E
:102F10000906FBD50449096849084900024A1160BD
:102F2000704700003880044000000440080004405E
:102F30000400044080B5DFF84403006850F002004C
:102F4000DFF838130860DFF83803006830F002005B
:102F5000DFF82C130860DFF82C030078A0280ED3CC
:102F6000DFF82403012101705B20FFF7EAF8572006
:102F7000FFF79DF800221A210420FEF7E1FB01BDB6
:102F8000BE48006850F00800BC490860BC480068B2
:102F900030F00800BA490860704710B51A24BB48E1
:102FA00000680121A140084215D0B84800680121FD
:102FB000A1400843B54908605720FFF7C2F85B20DD
:102FC000FFF775F8B248B3490160AF4800210170BE
:102FD000AC480021017010BD0A20AF4909680122E8
:102FE0008240114211D0AC4909680122824011434C
:102FF000A94A1160A3490978491CA24A1170A04945
:10300000096851F002019E4A116070471320A349DC
:10301000096801228240114206D0A04909680122B4
:10302000824011439D4A1160704713209C490968F2
:1030300001228240114206D099490968012282404A
:103040001143974A1160704780B596480088401C2C
:10305000944908809448006850F001009249086043
:1030600090480088012836D190489149098801800C
:103070009048914909880180012211210020FEF722
:103080005FFB012200210220FEF75AFB1420FEF70D
:10309000ADFB002211210020FEF752FB002200218F
:1030A0000220FEF74DFB8548002101708448002175
:1030B00001708148002101807D4800210180814804
:1030C000002101708048002101704520FEF7EFFFCC
:1030D0004620FEF7ECFF73480088072844D14520BE
:1030E000FFF72FF84620FFF72CF8764800780128E4
:1030F00007D175480078012803D174480121017077
:1031000002E07248002101707148007871496F4AED
:10311000127842546E480078401C6D4908706C4823
:103120000078052802D16A480021017000206A4910
:1031300000220A7000210800C0B2052809D26649A1
:103140000978C0B2634A825C5118634A1170401C0E
:10315000F2E761490978032903D3604901220A7023
:1031600002E05E4900220A704E480088082814D107
:103170005B480078002804D000F0BCF8FDF766F941
:103180000BE041F2883200210020FDF70DFF41F2F3
:10319000883201210020FDF707FF424800880A28F5
:1031A00002D140480021018001BD80B54D48006832
:1031B00050F001004B49086000210120FEF7EDFAB4
:1031C000494908704848007801280FD13B4801213F
:1031D000017039480088401C37490880364800880B
:1031E000292815D34520FEF7ACFF11E033480078BD
:1031F00001280DD130480088282809D23A480078A3
:10320000002805D12F48012101704520FEF799FFC4
:1032100001BD80B53548006850F0010033490860B1
:1032200006210220FEF7B9FA3149087030480078CB
:1032300001280FD12248012101701D480088401C3F
:103240001B4908801A480088292815D34620FEF714
:1032500078FF11E01A48007801280DD11448008841
:10326000282809D222480078002805D116480121D3
:1032700001704620FEF765FF01BD0000248000407C
:103280000C800040A2F5FF1FA1F5FF1FA090044095
:1032900030900040E807FF1FA0D00440A0A00440E9
:1032A000A0B004409EF5FF1F0C7103409CF5FF1F6A
:1032B00098F5FF1F9AF5FF1F96F5FF1FA5F5FF1F55
:1032C000A6F5FF1FA3F5FF1FA4F5FF1FAAF5FF1F1B
:1032D000A8F5FF1F68F5FF1FA9F5FF1FA7F5FF1F42
:1032E000B4F5FF1F1C710340ABF5FF1F2C710340A9
:1032F000ACF5FF1F80B50420FFF77CFD0C4908608A
:103300000520FFF777FD0B4908600420FFF780FDDB
:103310000520FFF77DFD09210120FEF73EFA064951
:10332000086007210120FEF738FA0449086001BD52
:103330009807FF1F9C07FF1FA007FF1FA407FF1F81
:103340000000704100002041640000000000804047
:10335000008003400090034000800B4000F00F40CD
:1033600040F00F4080F00F40C0F00F4000F10F40E0
:103370000090044000A0044000B0044000C004409D
:1033800000D004400B1F00000009000000A0064010
:1033900000B0064000C0064000D0064000A00E402D
:1033A00000B00E40F0B4114E366834000F4E36684F
:1033B00056F47F060D4F3E600E0616F0706656EA14
:1033C0000076170517F470073E431F0417F47027A3
:1033D0003E43074F3E6000263500EDB29D4201D2CC
:1033E0006D1CFAE7014E3460F0BC704700F00140FC
:1033F00044800440B6CFD1D4B7A2C9FAD4DA257339
:10340000CEC4BCFEB5C4B5DA2564D0D0A3A10AB63B
:10341000CFD1D4CCF5BCFEB2BBB3C9C1A2A3ACC75B
:10342000EBBCECB2E2B4EDCEF3D4ADD2F2A1A30981
:10343000A1AAA1AA20627920D2B0BBF00A0A00009A
:10344000433A5C55736572735C77756B61695C4474
:1034500065736B746F705C50726F67726D65725CD0
:1034600073696E676C655F63616D657261312E357E
:103470005C7372635C647269766572735C677069B1
:103480006F5C6770696F2E6300000000433A5C5503
:10349000736572735C77756B61695C4465736B749B
:1034A0006F705C50726F67726D65725C73696E6786
:1034B0006C655F63616D657261312E355C7372633B
:1034C0005C647269766572735C46544D5C46544D1B
:1034D0002E630000C4DABACBC6B5C2CAA3BA25644B
:1034E0004D487A09D7DCCFDFC6B5C2CA20A3BA25BA
:1034F000644D487A0A666C6578C6B5C2CAA3BA2517
:10350000644D487A2009666C617368C6B5C2CAA367
:10351000BA25644D487A0A0A000000000A45525252
:103520002120496E76616C6964207072696F7269DE
:1035300074792076616C75652070617373656420A1
:10354000746F207072696F7269747920697271206A
:1035500066756E6374696F6E210A00000A546869AB
:10356000732076657273696F6E206F6620736F6665
:10357000747761726520646F65736E27742072655D
:10358000636F676E697A6520746865207265766915
:1035900073696F6E20636F64652E00000A45525296
:1035A0002120496E76616C69642049525120766110
:1035B0006C75652070617373656420746F20646935
:1035C0007361626C65206972712066756E637469DF
:1035D0006F6E210A000000000A4552522120496EF8
:1035E00076616C6964204952512076616C75652062
:1035F00070617373656420746F207072696F726993
:103600007479206972712066756E6374696F6E21BA
:103610000A0000000A4552522120496E76616C6909
:1036200064204952512076616C7565207061737316
:10363000656420746F20656E61626C6520697271CB
:103640002066756E6374696F6E210A000A556E728A
:1036500065636F676E697A6564204B696E6574692E
:1036600073207061636B61676520636F64652E20F2
:10367000202020202000000010B5084979441C318A
:10368000074C7C441A34A14206D0081D0A68511820
:1036900088470146A142F8D110BD00BF5800000084
:1036A000640000000A556E7265636F676E697A6523
:1036B00064204B696E657469732066616D696C790D
:1036C000206465766963652E0A000000466C6173AC
:1036D0006820706172616D657465722076657273C1
:1036E000696F6E2025642E25642E25642E25640ABC
:1036F000000000001FD3FFFFF4F00000C404FF1F10
:10370000000000000A0A0909D2B0BBF06B696E65BF
:10371000746973BACBD0C4B0E5B2E2CAD4B3CCD02A
:10372000F20A00000AD2B0BBF04B696E657469738F
:10373000BFAAB7A2B0E5C6F4B6AFB7BDCABDA3BABB
:1037400000000000455252212120556E64656669D3
:103750006E656420502D666C6173682073697A65AC
:103760000A000000455252212120556E64656669A9
:103770006E656420466C65784E564D2073697A6597
:103780000A000000466C6173682076657273696F89
:103790006E2049442025642E25642E25642E256440
:1037A0000A000000436F7265204C6F636B757020D8
:1037B0004576656E742052657365740A00000000DA
:1037C0004C6F772D766F6C74616765204465746506
:1037D00063742052657365740A00000045525221DB
:1037E0002120556E646566696E65642052414D20E6
:1037F00073697A650A0A00005761746368646F67C9
:1038000028434F50292052657365740A0000000058
:103810004C6F7373206F6620436C6F636B2052652F
:103820007365740A00000000313238206B427974ED
:103830006573206F6620502D666C61736809000007
:10384000323536206B4279746573206F6620502DB7
:10385000666C617368090000353132206B427974FF
:103860006573206F6620502D666C617368090000D7
:1038700030206B4279746573206F6620466C6578E2
:103880004E564D0A00000000313238206B427974E8
:103890006573206F6620466C65784E564D0A0000B1
:1038A000323536206B4279746573206F6620466C22
:1038B00065784E564D0A000000F009F8002801D046
:1038C000FFF7DAFE0020FEF787FB00F002F8012088
:1038D000704700F001B800000746384600F002F8D3
:1038E000FBE7000080B5C046C046024A1100182020
:1038F000ABBEFBE72600020045787465726E616C12
:103900002050696E2052657365740A0053696C69B2
:10391000636F6E2072657620312E302020200A00E1
:1039200053696C69636F6E2072657620312E312089
:10393000200A000053696C69636F6E2072657620FF
:10394000312E3220200A00003332206B4279746518
:1039500073206F662052414D0A0A00003634206BF6
:103960004279746573206F662052414D0A0A000047
:103970003936206B4279746573206F662052414D51
:103980000A0A0000313238206B4279746573206F67
:10399000662052414D0A0A00536F66747761726562
:1039A0002052657365740A00506F7765722D6F6ED3
:1039B0002052657365740A00333270696E202020CE
:1039C0002020202000000000343870696E20202064
:1039D0002020202000000000363470696E20202056
:1039E0002020202000000000383070696E20202048
:1039F0002020202000000000383170696E20202037
:103A0000202020200000000031303070696E20201E
:103A1000202020200000000031303470696E20200A
:103A2000202020200000000031343470696E2020F6
:103A3000202020200000000031393670696E2020DF
:103A4000202020200000000032353670696E2020D2
:103A50002020202000000000502D666C617368203B
:103A60006F6E6C790A00000010B504002100C9B225
:103A70000320FEF724FE10BD4A54414720526573CF
:103A800065740A004C4C57552052657365740A00E2
:103A9000666C617368C6F4B6AF0A00005352414DBC
:103AA000C6F4B6AF0A000000C046C046C046C046D5
:103AB000FFF702FF0A4B31302D0000000A4B323075
:103AC0002D0000000A4B33302D0000000A4B34302B
:103AD0002D0000000A4B36302D0000000A4B373015
:103AE0002D0000000A4B35302D0000000A4B353305
:043AF0002D000000A5
:0400000500003AA914
:00000001FF
